:020000040800F2
:10000000189000204501000855210008191A000821
:1000100079200008130C0008312A000800000000B5
:100020000000000000000000000000000D23000898
:10003000D90D000800000000DD210008212400087F
:100040005F0100085F0100085F0100085F01000810
:100050005F0100085F010008DD0D00085F01000876
:1000600041100008B5100008711300085F01000876
:100070005F0100085F0100085F0100085F010008E0
:100080005F0100085F0100085F0100085F010008D0
:100090005F0100085F0100085F0100085F010008C0
:1000A0005F0100085F0100085F0100085F010008B0
:1000B0005F0100085F0100085F0100085F010008A0
:1000C0005F0100085F0100085F0100085F01000890
:1000D0005F0100085F0100085F0100085F01000880
:1000E0005F0100085F0100085F0100085F01000870
:1000F0005F0100085F0100085F0100085F01000860
:100100005F0100085F0100085F0100085F0100084F
:100110005F0100085F0100085F0100085F0100083F
:100120005F0100085F0100085F0100085F0100082F
:10013000DFF80CD000F0FAFB00480047F13C000863
:10014000189000200648804706480047FEE7FEE773
:10015000FEE7FEE7FEE7FEE7FEE7FEE7FEE7FEE777
:100160006124000831010008F0B480EA0102D40FD4
:100170004200B2EB410F02D20246084611464A0045
:1001800042D0C30DDDB2C1F3C752AD1A202D35DA0E
:10019000C1F3160141F4000204B15242C5F1200638
:1001A00002FA06F12A411044B3EBD05F23D0C4B168
:1001B000012DA0EBC35009DCF0BC4FF0004202EA75
:1001C000C352DBB200F5000000F0F5BA400000F1C8
:1001D000807000EBC350A0F1807040EAD1704900FC
:1001E00009E0490841EAC071A0EBC35000F50000E6
:1001F000400800EBC350F0BC00F0D4BA61420122C9
:1002000002EB4101001BF6E7F0BC704781F00041B2
:10021000AAE780F00040A7E780EA010210B502F0EB
:100220000043400022D04A001FD0010E01EB1261B2
:10023000C0F35600C2F3560240F4000042F400023C
:10024000A0FB022000047F39140400D0401C50EAB7
:10025000124001D44000491EC2B20C0604EBD0107B
:10026000401C4008802A02D003E0002010BD20F08E
:100270000100002900DA0020184310BD30B480EAE4
:10028000010202F0004530F0004221F0004013D09E
:1002900090B1C30DD40DC2F31601C0F31600E41AD9
:1002A00041F4000140F400027D34914201D3641C0A
:1002B00000E04900002C02DA30BC002070474FF407
:1002C00000000023914201D3891A034340084FEAFA
:1002D0004101F7D151B1914202D14FF0004105E007
:1002E00002D24FF0010101E06FF0010103EBC450B5
:1002F000284430BC00F056BA2DE9FE4F804681EA12
:100300000300C00F0C46009021F0004123F000458F
:10031000B8EB0200A94105D24046214690461C4652
:100320000B46024623F00040104347D0270DC7F389
:100330000A00C3F30A510290401A019040286BDA78
:10034000C3F3130040F4801B0098924620B10023B1
:10035000D2EB030A63EB0B0B01985946C0F1400244
:10036000504600F0FEF906460D4650465946019AA1
:1003700000F006FA10EB08006141002487EA1152F0
:1003800084EAE7731A4340D0009A62B3019A012AC3
:100390004FEA075215DC001B61EB02014FF00042EF
:1003A00002EA0752CDE90042001C41F580113246B5
:1003B0002B4600F03DFA03B0BDE8F08F40462146E1
:1003C000F9E7001B61EB0201001C41F580130018E6
:1003D0005B412018A2F5001747EB030140EAD570F6
:1003E000B6196D4111E06D084FEA360645EAC07551
:1003F0004FEA0752001B61EB0201001C41F580111E
:1004000049084FEA30000019514132462B4603B0EB
:10041000BDE8F04F00F0FDB9009801224000002334
:10042000D0EB020263EBE073009821464FEAE074E0
:10043000B8EB000061EB0401E9E783F000435BE700
:1004400081F0004158E72DE9FE4F81EA030404F0F2
:10045000004421F0004100944FF0000B23F00043D2
:1004600050EA01045ED052EA03045BD0C3F30A549D
:10047000C1F30A552C44A4F2F3340194A0FB0254B6
:10048000C1F3130141F48011C3F3130343F4801348
:1004900001FB024400FB034E840A970A44EA81549C
:1004A00047EA8357A4FB076802958D0A05FB078579
:1004B0004FEA932C04FB0C542705029D4FEA065883
:1004C00047EA1637B5EB08056EEB070C870E920E60
:1004D00047EA811742EA8312A7FB0201B6EB0B0140
:1004E00064EB00042B0D43EA0C335E1844EB1C5004
:1004F000DA465146E7FB0201C5F313044FEA0B331A
:1005000043EA14534FEA0432019C43EA0603A4F180
:100510000C040294009CCDE900B400F089F903B00A
:10052000BDE8F08F00200146F9E72DE9F04D81EAA2
:10053000030404F0004B21F0004514464FF0000A7C
:1005400023F0004150EA050220D054EA01021DD0F8
:10055000C5F30A570246C5F31303C1F31300C1F3F1
:100560000A5640F4801543F48013A7EB0608101BCD
:10057000D64608F2FD3873EB050002D308F10108F6
:1005800001E092185B41B8F1000F03DA0020014648
:10059000BDE8F08D00204FF48011064684460EE041
:1005A000171B73EB050705D3121B63EB050306430B
:1005B0004CEA010C49084FEA300092185B4150EABE
:1005C0000107EDD152EA030012D082EA040083EA67
:1005D0000501084305D0101BAB4106D201220023C0
:1005E00006E000224FF0004302E06FF001025310DA
:1005F0001AEB06004CEB085110EB0A0041EB0B0123
:10060000BDE8F04D00F005B9C10F80EAE070084484
:10061000CA079623002100F0CEB896230022114687
:1006200000F0C9B820F00040C10DC0F3160040F43E
:1006300000007F2901DA00207047962903DCC1F110
:100640009601C840704796398840704700F00042D4
:1006500030F000400AD0C10D01F56071C0F3160002
:1006600042EA0151C2084007114370470020014689
:10067000704701F0004330B421F0004150EA01021C
:1006800006D00A0DA2F56072C1F31301002A02DC44
:1006900030BC00207047440F44EAC104C100E01898
:1006A00030BC00EBC25000F07DB80000002801DB38
:1006B000C0F10040002901DBC1F1004181427047D7
:1006C000002801DBC0F10040002901DBC1F100413D
:1006D0008842704730B50B46014600202022012495
:1006E00009E021FA02F59D4205D303FA02F5491B00
:1006F00004FA02F52844151EA2F10102F1DC30BD16
:100700002DE9F05F0546002092469B468846064646
:10071000814640241BE0284641464746224600F0D9
:1007200017F953465A46C01A914110D3114618463C
:10073000224600F016F82D1A67EB01084F462246B4
:100740000120002100F00DF817EB00094E41201E9A
:10075000A4F10104DFDC484631462A464346BDE8A1
:10076000F09F202A04DB203A00FA02F100207047B3
:100770009140C2F1200320FA03F3194390407047DF
:10078000202A06DBCB17203A41FA02F043EAE07355
:1007900006E041FA02F3D040C2F120029140084342
:1007A000194670470029A8BF7047401C490008BF80
:1007B00020F00100704710B4B0FA80FC00FA0CF091
:1007C00050EA010404BF10BC704749B1CCF12004C9
:1007D00021FA04F411FA0CF118BF01212143084356
:1007E000A3EB0C01CB1D4FEA00614FEA102042BF82
:1007F000002010BC704700EBC35010440029A4BF78
:1008000010BC7047401C490008BF20F0010010BC1C
:10081000704710B5141E73F1000408DA401C41F152
:10082000000192185B411A4301D120F0010010BD74
:100830002DE9F04D92469B4611B1B1FA81F202E0EA
:10084000B0FA80F220329046FFF78BFF04460F4645
:1008500040EA0A0041EA0B0153465A46084313D0C6
:10086000114653EA010019D0C8F14002504600F089
:100870006FF805460E46504659464246FFF771FF4F
:10088000084305D0012004E020463946BDE8F08D3C
:100890000020054346EAE0762C4337430A98630577
:1008A000E40AA0EB08000022FD0A44EA47540A309B
:1008B00002D500200146E9E7010510196941DDE98B
:1008C000084500196941BDE8F04DA2E7C1F30A529D
:1008D000C1F3130140F2FF3341F480119A4202DA6E
:1008E00000200146704740F233439A42A2F233425D
:1008F00002DC524200F02CB8FFF733BF30B5041EC3
:1009000071F1000404DB4FF00044404264EB01014C
:10091000141E73F1000405DB1C464FF000435242E5
:1009200063EB0403994208BF904230BD064C074D6B
:1009300006E0E06840F0010394E8070098471034AF
:10094000AC42F6D3FFF7F8FBB0590008D0590008C5
:10095000202A04DB203A21FA02F00021704721FA14
:1009600002F3D040C2F1200291400843194670477B
:1009700008B50121084601F03FFC01214FF4047045
:1009800001F04AFC0120ADF8000000208DF80300C2
:100990006946024800F048FE08BD00000010014012
:1009A00010B5FFF7E5FF00F001F810BD00B591B0FC
:1009B000334800F04DF93348069033480790002043
:1009C00008900120099000200A900B904FF480704D
:1009D0000C9080000D9020200E9000020F900020BF
:1009E000109006A9264800F0D9F90121244800F00A
:1009F00023F9002001908DF8080001208DF80900EE
:100A00004FF4602003900020049001208DF8140022
:100A100001A91C484C3800F063F84FF4404001F045
:100A2000DFFB01231A460A2116484C3800F080F8F3
:100A3000012114484C3800F034F8012111484C3899
:100A400000F024F80F484C3800F0CEF800BF0D48F5
:100A50004C3800F03BF80028F9D10A484C3800F037
:100A6000D3F800BF07484C3800F026F80028F9D129
:100A7000012104484C3800F0BCF811B000BD000062
:100A8000080002404C2401402400002021B182686B
:100A900042F00102826003E0826822F0010282607B
:100AA000704721B1826842F48072826003E08268FC
:100AB00022F4807282607047014600208A6802F04A
:100AC00004020AB1012000E0002070470146002026
:100AD0008A6802F008020AB1012000E00020704795
:100AE00030B502460020002350680F4C20400D799D
:100AF0000C6844EA05242043506090680B4C204069
:100B0000D1E902542C434D7944EA450420439060D6
:100B1000D06A20F470000C7C641EE4B2234340EAE7
:100B20000350D06230BD0000FFFEF0FFFDF7F1FF83
:100B3000F0B504460D4600200021092D11DDE068C6
:100B4000A5F10A0606EB4607072606FA07F18843D1
:100B5000A5F10A0606EB460603FA06F10843E06033
:100B60000CE0206905EB4507072606FA07F18843E4
:100B700005EB450603FA06F108432061072A0FDA60
:100B8000606B561E06EB86071F2606FA07F18843A0
:100B9000561E06EB860605FA06F10843606322E05E
:100BA0000D2A0FDA206BD61F06EB86071F2606FAE2
:100BB00007F18843D61F06EB860605FA06F10843BF
:100BC000206310E0E06AA2F10D0606EB86071F26FF
:100BD00006FA07F18843A2F10D0606EB860605FA30
:100BE00006F10843E062F0BD816841F008018160D0
:100BF000704721B1826842F4A002826003E08268FB
:100C000022F4A00282607047816841F00401816093
:100C1000704700BFFEE770B5044606E0256820680F
:100C200040682060284603F03BF8206840680028B0
:100C3000F4D12068606070BD21B1026842F0010209
:100C4000026004E002684FF6FE731A4002607047CB
:100C500001684FF6FE7211400160002101604160A1
:100C60008160C1604B49884208D14A4908394968C6
:100C700041F00F01474A083A51608AE04549143172
:100C8000884208D143490839496841F0F001414A96
:100C9000083A51607DE03F492831884208D13D49FA
:100CA0000839496841F470613A4A083A516070E085
:100CB00038493C31884208D136490839496841F4FD
:100CC0007041344A083A516063E0324950318842F9
:100CD00008D130490839496841F470212D4A083A51
:100CE000516056E02B496431884208D129490839BE
:100CF000496841F47001274A083A516049E02549A2
:100D00007831884208D123490839496841F0706137
:100D1000204A083A51603CE01F49884206D1011F31
:100D2000096841F00F01021F116032E01A491431C5
:100D3000884208D11849091F096841F0F001164A94
:100D4000121F116025E014492831884208D1124948
:100D5000091F096841F470610F4A121F116018E001
:100D60000D493C31884208D10B49091F096841F4FB
:100D70007041094A121F11600BE007495031884247
:100D800007D10549091F096841F47021024A121F61
:100D900011607047080002400804024010B50022AC
:100DA000026847F6F0739A430C6A8B6823430C6918
:100DB00023434C6923438C692343CC6923434C6A06
:100DC00023438C6A23431A430260CB6843600B6859
:100DD00083604B68C36010BD704700002DE9F04F81
:100DE00093B000208149086081490860012000F02B
:100DF000FFFA01287ED17F480068FFF70CFF7E488C
:100E00000068012877D100207C49086001243EE079
:100E10007B480088FFF701FC0390FFF717FC0022D6
:100E2000784BCDE90401FFF780FB07464FF06632AF
:100E3000754BFFF708FB0546FFF71BFC814648464C
:100E4000FFF704FC05460022704BFFF76EFB002203
:100E50006F4BCDE90001FFF7F6FA00226D4BCDE9AB
:100E60000201FFF7EDFA00226B4BCDE90401FFF719
:100E700043FA0746FFF7FDFB824651465D4800688E
:100E800000F014FB282002F0D3FE601C84B2B4F5FD
:100E90007A7FBDDB5748006800F054FC5F4801686A
:100EA0005F480068FFF7B2F983465E480068FFF7C5
:100EB000CDFB05462A460B465BA10FA802F020FA9F
:100EC00057480068FFF7C2FB05462A460B4656A165
:100ED0000CA802F015FA51480068FFF7B7FB054669
:100EE0002A460B4650A109A802F00AFA5846FFF715
:100EF000ADFB01E073E071E005462A460B464AA1CE
:100F000006A802F0FDF90CA81021CDE90010484810
:100F10004388028846214FF4A57000F0C3FF45A026
:100F20001021CDE9001042484388028846214FF441
:100F3000BE7000F0B7FF09A81021CDE900103C48B1
:100F4000438802886E214FF4A57000F0ABFF39A0F2
:100F50001021CDE900103648438802886E214FF4F5
:100F6000BE7000F09FFF06A81021CDE900103048A8
:100F70004388028896214FF4A57000F093FF2DA0BE
:100F80001021CDE900102A484388028896214FF4A9
:100F9000BE7000F087FF0FA81021CDE90010244893
:100FA00043880288BE214FF4A57000F07BFF22A089
:100FB0001021CDE900101E4843880288BE21480058
:100FC00000F070FF1D4B00224FF478410948006883
:100FD00001F046FC0548006801F02CFD00BF01202F
:100FE00000F000FA13B0BDE8F08F000030000020E0
:100FF0002C00002028000020000121428401224210
:10100000240000200000B04066660A400000104046
:101010000000694000C0664000804140540000204C
:101020003800002034000020252E32660000000029
:101030001800002056000000487A0000651F0008D4
:1010400010B5042000F0D4F9012823D10A2002F0C1
:10105000C9FD12480068E8B9012011490860114B28
:1010600011484FF6FF7102681048006801F0F8FB64
:101070000D480068401F0C4908600A4B08464FF4B1
:10108000784102680948006801F0EAFB08480068F6
:1010900001F0D0FC042000F0A5F910BD08012342A6
:1010A00088012242112000082C0000202800002086
:1010B000300000202DE9F04F93B0002097490860E0
:1010C00097480068052805D095480068401C944959
:1010D000086002E0002092490860082000F088F9CA
:1010E00001287DD18F480068FFF795FD8E48006884
:1010F000002876D101208D490860012460E08C48E9
:101100000088FFF78AFA0390FFF7A0FA0022894BC4
:10111000CDE90401FFF709FA07464FF06632864B26
:10112000FFF791F90546FFF7A4FA81464846FFF715
:101130008DFA05460022814BFFF7F7F90022804B1C
:10114000CDE90001FFF77FF900227E4BCDE90201D6
:10115000FFF776F900227C4BCDE90401FFF7CCF8CC
:101160000746FFF786FA824651466E48006800F04F
:101170009DF9282002F05CFD6948006806281CD211
:10118000DFE800F01B03070C1116582002F050FD99
:1011900013E040F20B1002F04BFD0EE040F2722023
:1011A00002F046FD09E040F2465002F041FD04E045
:1011B00040F6BE2002F03CFD00BF00BF601C84B2C0
:1011C000B4F57A7F9BDB5748006800F0BBFA5F48B4
:1011D00001685F480068FFF719F883465D4801E041
:1011E00096E094E00068FFF731FA05462A460B4680
:1011F00059A10FA802F084F855480068FFF726FAB5
:1012000005462A460B4654A10CA802F079F84F482F
:101210000068FFF71BFA05462A460B464EA109A8AF
:1012200002F06EF85846FFF711FA05462A460B46BB
:1012300049A106A802F064F80CA81021CDE900101D
:1012400047484388028846214FF4A57000F02AFEE3
:1012500044A01021CDE9001041484388028846216E
:101260004FF4BE7000F01EFE09A81021CDE9001059
:101270003B48438802886E214FF4A57000F012FEAF
:1012800038A01021CDE900103548438802886E212E
:101290004FF4BE7000F006FE06A81021CDE9001044
:1012A0002F484388028896214FF4A57000F0FAFD7C
:1012B0002CA01021CDE900102948438802889621EE
:1012C0004FF4BE7000F0EEFD0FA81021CDE9001024
:1012D000234843880288BE214FF4A57000F0E2FD48
:1012E00021A01021CDE900101D4843880288BE21AD
:1012F000480000F0D7FD1D4B00224FF4784109480B
:10130000006801F0ADFA0648006801F093FB00BFE9
:10131000082000F067F813B0BDE8F08F2C00002023
:1013200030000020280000200C01234284012242CA
:10133000240000200000B04066660A400000104013
:101340000000694000C06640008041405400002019
:101350003800002034000020252E326600000000F6
:101360001800002056000000487A0000651F0008A1
:1013700010B5102000F03CF8012823D10A2002F01B
:1013800031FC12480068E8B9002011490860114B8F
:1013900011484FF6FF7102681048006801F060FACA
:1013A0000D480068401D0C4908600A4B08464FF480
:1013B000784102680948006801F052FA084800685C
:1013C00001F038FB102000F00DF810BD1001234291
:1013D00088012242112000082C0000202800002053
:1013E00030000020014908607047000014040140EB
:1013F000014600200022074B1B6803EA0102054B4F
:1014000014331B680B4013B10AB1012000E0002027
:101410007047000000040140002123498279002A1E
:101420003AD00A46126803689A430B461A600A1DAE
:10143000126803689A430B1D1A60027911440A6806
:1014400003681A430A60184A0832126803689A430C
:10145000154B08331A601A1D126803689A43124B21
:101460000C331A604279102A0ED11A1F12680368D1
:101470001A430D4B08331A601A1D126803681A4389
:10148000094B0C331A600DE00749427911440A6890
:1014900003681A430A6005E0027911440A68036888
:1014A0009A430A60704700000004014070B5054689
:1014B0000E46082002F052FC0446266000206060C0
:1014C000686844606C60012070BD000051B182000A
:1014D000A2F1C042126842F001038200A2F1C042B0
:1014E000136009E08200A2F1C0421268034B1A4067
:1014F0008300A3F1C0431A6070470000FEFF0F0095
:10150000D0E901121143C2681143026911434269D3
:10151000114382691143C2691143026A1143426A4D
:101520001143826A1143C26A1143026B114302687C
:101530009200A2F1C0421160816808290BD10168B4
:101540008900A1F1C041096841F0400201688900A9
:10155000A1F1C0410A60416B0968426B526841EADF
:101560000211426B926841EA0221426B928941EA80
:101570000241426B128A41EA0251426B127D41EAFA
:101580000261426B926911430268521C9200A2F1FF
:10159000C0421160C16AB1F5804F1BD1816B0968EF
:1015A000826B526841EA0211826B926841EA022121
:1015B000826B128A41EA0251826B127D41EA02611A
:1015C000826B9269114302689200A2F1C042C2F894
:1015D000041107E06FF0704201688900A1F1C04179
:1015E000C1F804217047000030B500228B071C0FA2
:1015F0000F2303FA04F20B4B8C1053F8243093435F
:10160000084C8D1044F8253023468C1053F82430B4
:101610008C07240F00FA04F42343024C8D1044F885
:10162000253030BD080001402DE9F041024600257B
:101630000026002000230024002791F803C00CF0AE
:101640000F0591F803C00CF0100CBCF1000F03D093
:1016500091F802C04CEA050591F800C0BCF1000FFA
:1016600031D0146800202BE04FF0010C0CFA00F38D
:10167000B1F800C00CEA03069E4220D183004FF06F
:101680000F0C0CFA03F7BC4305FA03FC4CEA040404
:1016900091F803C0BCF1280F06D14FF0010C0CFAF1
:1016A00000FCC2F814C00AE091F803C0BCF1480F76
:1016B00005D14FF0010C0CFA00FCC2F810C0401C20
:1016C0000828D1D31460B1F800C0BCF1FF0F34DD9D
:1016D000546800202EE000F1080C4FF0010808FAD1
:1016E0000CF3B1F800C00CEA03069E4221D183003E
:1016F0004FF00F0C0CFA03F7BC4305FA03FC4CEA5D
:10170000040491F803C0BCF1280F05D100F1080CC6
:1017100008FA0CF8C2F8148091F803C0BCF1480F25
:1017200007D100F1080C4FF0010808FA0CF8C2F8D4
:101730001080401C0828CED35460BDE8F0810161C0
:10174000704700002DE9F05F8146D9F80040002085
:101750009549086095490860954908609549086071
:1017600095490860954908609549086064E00EE075
:101770006468944920680968FEF7A2FF02D2914983
:10178000206808608E480068401C8D490860D4E9D4
:1017900000121068FEF73AFD05460021FEF790FFA3
:1017A00002D860680028E3D18349206808600EE011
:1017B0006468844920680968FEF782FF02D2814983
:1017C000206808607E480068401C7D490860D4E9B4
:1017D00000121068FEF71AFD05460021FEF766FFAD
:1017E00002D860680028E3D1744920680860084680
:1017F000016871480068FEF709FD05467249FEF769
:101800005FFF19D26E480068FEF7FEFE68490A685D
:101810000968491C664B19606C4941F82200002098
:10182000674908606348216802680068401C614B92
:101830001860674840F822106068002897D101209E
:10184000644908601AE05A490968881EFEF7DCFE00
:1018500006465E495F4A126851F822003146FEF79B
:101860000DFD0546504801682846FEF77DFC4E49AF
:10187000086058480068401C564908604C48006899
:10188000401E544909688842DDDC00205149086047
:1018900019E047480068FEF7B7FE06464C494D4A36
:1018A000126851F822003146FEF7E8FC05463F4831
:1018B00001682846FEF758FC3C4908604548006826
:1018C000401C44490860434800683A490968884216
:1018D000DFDB4148006806281CD2DFE800F0030780
:1018E0000B0F13173D483E49086013E03D483C4943
:1018F00008600FE03C483A4908600BE03B48384933
:10190000086007E03A483649086003E0394834493E
:10191000086000BF00BF2448016831480068FEF736
:101920007BFC8246FEF792FE07463A460B460020B5
:101930003149FEF7FAFD0546FEF79BFE2F49086088
:101940002F491A480068FEF7BBFE18D22D491748E8
:101950000068FEF7ABFE12D214480068FEF776FE70
:1019600082460022284BFEF76BFD07460022274BDC
:10197000FEF7DBFD0546FEF77CFE254908601148B1
:101980000068FEF763FE054600221F4BFEF758FD78
:10199000074600221D4BFEF7C8FD8246FEF769FE92
:1019A0001C490860BDE8F09F3C000020400000207A
:1019B000600000205C000020480000204C00002057
:1019C0004400002058000020000020417400002046
:1019D00044080020640000203000002017B7D138F0
:1019E0005000002017B7513917B7D13917B7513AFE
:1019F00017B7D13A17B7513B0000F03F3400002031
:101A00000000A0410000964300206B4000004940C8
:101A1000380000205400002000BFFEE770B50446E7
:101A2000082002F09BF905460420A06025600020F4
:101A30002168486065606168486070BD08B5012133
:101A4000442000F0E9FB0120ADF8000028208DF8CB
:101A5000030003208DF8020069460848FFF7E4FD03
:101A60001C20ADF8000048208DF8030003208DF8FD
:101A7000020069460248FFF7D7FD08BD0008014093
:101A80000018014070B506460F484088401E83B2DA
:101A90000D480088401E82B20021084600F00CF973
:101AA00000240CE0002504E0304600F03BFA681CFE
:101AB00085B205484088A842F6DC601C84B2024822
:101AC0000088A042EEDC70BD1800002000B5024680
:101AD000012A15D100F01AFA4FF4807000F01CFAB8
:101AE000032000F013FA41F2300000F015FA4FF431
:101AF000C8700E494880F02008800020887114E0EA
:101B0000012000F003FA002000F006FA032000F0A4
:101B1000FDF941F2380000F0FFF9F0200349488058
:101B20004FF4C87008800120887100BD18000020A3
:101B300070B504460D4616462B46224629462046D9
:101B400000F0BAF8304600F0EDF970BD2DE9FF4F16
:101B500084B081468A460020029083460698A0EB16
:101B600009050798A0EB0A06CDF80490CDF800A06F
:101B7000002D01DD012705E00DB9002702E04FF03F
:101B8000FF376D42002E02DD4FF0010806E016B966
:101B90004FF0000802E04FF0FF387642B54201DD19
:101BA0002C4600E03446002003901EE0009A91B2DB
:101BB000019A90B2119AFFF7BBFF02982844029055
:101BC000B3440298A04205DD0298001B02900198E0
:101BD00038440190A34504DDABEB040B009840446E
:101BE00000900398401C80B20390611C03988842C7
:101BF000DCDD08B0BDE8F08F2DE9FF4F83B08246F1
:101C00000020029083460598A0EB0A0504990698E7
:101C1000461ACDF804A004980090002D02DD4FF084
:101C2000010806E015B94FF0000802E04FF0FF3858
:101C30006D42002E02DD4FF0010906E016B94FF0AB
:101C4000000902E04FF0FF397642B54201DD2C4633
:101C500000E03446002722E0032097FBF0F100FB70
:101C6000117030B9009A91B2019A90B2109AFFF7B0
:101C70005FFF029828440290B3440298A04205DD19
:101C80000298001B0290019840440190A34504DD96
:101C9000ABEB040B009848440090781C87B2601CA2
:101CA0008742D9DD07B0BDE8F08F00000148008809
:101CB000704700000008006C30B505460C462E4801
:101CC000807950BB4FF4047000F020F9284600F0F2
:101CD00023F940F2112000F019F9104600F01CF928
:101CE00040F2122000F012F9204600F015F940F2FF
:101CF000132000F00BF9184600F00EF94FF40070B5
:101D000000F004F9284600F007F940F2012000F045
:101D1000FDF8204600F000F929E040F2122000F022
:101D2000F5F8284600F0F8F840F2132000F0EEF83D
:101D3000104600F0F1F84FF4047000F0E7F8204688
:101D400000F0EAF840F2112000F0E0F8184600F048
:101D5000E3F840F2012000F0D9F8284600F0DCF862
:101D60004FF4007000F0D2F8204600F0D5F840F2B1
:101D7000022000F0CBF830BD180000202DE9F84F0C
:101D800080460E4617461C46B3462046E31704EB32
:101D90005373DB1021464FEAE47C04EB5C7C4FEA92
:101DA000EC0CA4EBCC0CBCF1000F02D04FF0010CFA
:101DB00001E04FF0000C6344224604EBD27C4FEA72
:101DC0006C0C03FB0CF3DBB20093A7F12000C7B24D
:101DD000002556E00C2C07D107EB47002B4901EBFF
:101DE000800010F8059013E0102C05D1284800EB76
:101DF000071010F805900BE0182C07D107EBC7006F
:101E0000244901EB800010F8059001E0BDE8F88F4F
:101E10004FF0000A2FE009F0800030B11E48028820
:101E200031464046FFF784FE07E00A9828B91B4870
:101E3000028831464046FFF77BFE4FEA49604FEA91
:101E40001069701C86B216484088B04200DCDDE79D
:101E5000A6EB0B00A0420AD15E4608F101001FFA72
:101E600080F80F480088404500DCCFE706E00AF123
:101E7000010000F0FF0ABAF1080FCCDB00BF681CBC
:101E8000C5B200988542A5DB00BFBFE7C83D00088A
:101E90003C4200082C4800081400002016000020D6
:101EA000180000202DE9F84704460D469046994653
:101EB000DDE9096704F0FF0A08EB04001FFA80F867
:101EC00009EB05001FFA80F916E0444502DB544691
:101ED000A81985B24D4500DB14E0002000903A7847
:101EE000334629462046FFF749FF304606EBD071BE
:101EF00004EB61018CB27F1C38787E2802DC3878D4
:101F00002028E2DA00BFBDE8F88700000149088018
:101F100070470000FE07006C014908807047000010
:101F20000008006C01490880704700000008006C40
:101F300008B50121102000F06FF9FE20ADF8000077
:101F400010208DF8030003208DF802006946044834
:101F5000FFF76AFBFE210248FFF7F1FB08BD000016
:101F6000001001402DE9F84307460C4616461D4671
:101F7000B4F5967F47DA002C45DD3846FEF752FB74
:101F80001FFA80F804F1140188B22A464146FFF78F
:101F9000CFFD4FF6FF7004F115018AB2009088B2B0
:101FA000EA232421FFF7D2FD4FF6FF7004F116015A
:101FB0008AB2009088B2EA232421FFF7C7FD4FF6CA
:101FC000FF7004F117018AB2009088B2EA2324213D
:101FD000FFF7BCFD0D493046FEF768FB13D03046D5
:101FE000FEF720FB1FFA80F83846FEF71BFB1FFAAE
:101FF00080F904F113018AB2491C88B2434649466C
:102000000095FFF7A3FDBDE8F8830000000080BF46
:102010002DE9F84307460C4616461D46B4F5967F53
:1020200026DA002C24DD3846FEF7FCFA1FFA80F889
:1020300004F1140188B22A464146FFF779FD0D49A3
:102040003046FEF733FB13D03046FEF7EBFA1FFAAB
:1020500080F83846FEF7E6FA1FFA80F904F113011A
:102060008AB2491C88B2434649460095FFF76EFD87
:10207000BDE8F883000080BF00BFFEE70EB5012178
:10208000084600F0C9F802210420FFF7ADFA032149
:102090000420FFF7A9FA04210846FFF7A5FA00215A
:1020A0000846FFF7A1FA06208DF8080002208DF8F7
:1020B000090003208DF80A0001208DF80B0002A80A
:1020C00000F04AF808208DF8080002208DF8090079
:1020D0008DF80A0001208DF80B0002A800F03CF8F2
:1020E00009208DF8080002208DF8090001208DF8E4
:1020F0000A008DF80B0002A800F02EF80A208DF8D7
:10210000080002208DF8090000208DF80A00012047
:102110008DF80B0002A800F01FF8012000900020AD
:102120008DF8040008208DF8050001208DF80600C8
:102130006846FFF771F91C20009000208DF804001C
:102140000C208DF8050001208DF806006846FFF789
:1021500063F90EBD7047000070B5002100230F2207
:10216000C47804B3154C246804F4E064C4F5E06456
:10217000210AC1F10403CA40447804FA03F18478C7
:102180001440214309010E4C0678A155047804F04F
:102190001F050124AC4005786D11AD0005F1E02567
:1021A000C5F8004109E0047804F01F050124AC40A3
:1021B000044D0678761145F8264070BD0CED00E020
:1021C00000E400E080E100E002490143024A1160BE
:1021D000704700000000FA050CED00E070470000B9
:1021E00001460020034A506820F4404008435060F4
:1021F000704700000010024029B1064A52690243AC
:10220000044B5A6104E0034A52698243014B5A610C
:10221000704700000010024029B1064A926902434B
:10222000044B9A6104E0034A92698243014B9A612C
:10223000704700000010024030B500210022002449
:1022400000232D4D6D6805F00C0121B1042905D046
:10225000082923D105E0294D056022E0274D0560BE
:102260001FE0254D6D6805F47012234D6D6805F46F
:102270008034022505EB92421CB9214D554305607F
:102280000BE01D4D6D6805F400351DB11C4D554327
:10229000056002E0194D5543056002E0174D0560E9
:1022A00000BF00BF144D6D6805F0F0010909154D20
:1022B0006B5C0568DD4045600F4D6D6805F4E061BD
:1022C000090A104D6B5C4568DD4085600A4D6D68FC
:1022D00005F46051C90A0B4D6B5C4568DD40C56073
:1022E000054D6D6805F44041890B074D6B5CC56871
:1022F000B5FBF3F5056130BD0010024000127A0015
:1023000000093D000000002010000020704710B5BB
:1023100000F002F810BD00000CB500200190009004
:102320003348006840F480303149086000BF3048CD
:10233000006800F4003000900198401C0190009863
:1023400018B90198B0F5A06FF1D12948006800F4E0
:10235000003010B10120009001E0002000900098B2
:10236000012843D12348006840F01000214908604B
:102370000846006820F0030008600846006840F046
:10238000020008601A4840681949486008464068D9
:1023900048600846406840F48060486008464068ED
:1023A00020F47C1048600846406840F4E81048601B
:1023B0000846006840F08070086000BF0C48006864
:1023C00000F000700028F9D00948406820F00300B0
:1023D000074948600846406840F00200486000BF76
:1023E0000348406800F00C000828F9D10CBD00003B
:1023F0000010024000200240042808D14FF0E021E4
:10240000096941F004014FF0E022116107E04FF04B
:10241000E021096921F004014FF0E02211617047C9
:102420007047000010B504466FF00400FFF7E4FFAA
:10243000E11704EB5171C1F3C701074A117010464F
:10244000007800EB4001C1EBC0104FF6FF7101EACC
:10245000C0000249088010BD20000020220000209A
:1024600010B51348006840F00100114908600846A3
:102470004068104908400E494860084600680E4907
:1024800008400B4908600846006820F48020086076
:102490000846406820F4FE0048604FF41F00886042
:1024A000FFF735FF4FF000600449086010BD0000E1
:1024B000001002400000FFF8FFFFF6FE08ED00E00C
:1024C00000B59DB001210802FFF796FE012007909C
:1024D000002008900F20099000200A900B900C908B
:1024E0000D90009001900320029000200390049032
:1024F0000590069006200E9000200F90109010205E
:1025000011900020129014901390159016904FF493
:1025100080501790002018904FF4804019900020B0
:102520001A9007A81B90CDF870D00EA8FEF7E8FF10
:1025300001210620FEF7CAFF1DB000BD08B501212C
:102540004FF4B070FFF768FE4CF23370ADF8000046
:1025500018208DF8030003208DF80200694610480A
:10256000FFF762F84FF68070ADF8000018208DF884
:10257000030003208DF8020069460A48FFF754F86B
:1025800041F20100ADF8000018208DF8030003208F
:102590008DF8020069460448FFF746F808BD0000C0
:1025A00000140140001801400020014010B5FFF761
:1025B000C5FFFFF785FF322001F014FB0020FFF775
:1025C000A5FCFFF773FBA149888008468188A0A07D
:1025D00000F086FE0020FFF799FC0020FFF79CFC2E
:1025E0000020FFF793FC0020FFF796FC0020FFF788
:1025F0008DFC0020FFF790FC4FF48060FFF786FC15
:102600004FF4C440FFF788FC0820FFF77FFC40F63A
:102610000800FFF781FC0120FFF778FC4FF4807081
:10262000FFF77AFC0220FFF771FC4FF48070FFF790
:1026300073FC0320FFF76AFC41F23000FFF76CFCEB
:102640000820FFF763FC40F60800FFF765FC4FF435
:102650004070FFF75BFC0C20FFF75EFC40F201309E
:10266000FFF754FC45F60B20FFF756FC40F2023012
:10267000FFF74CFC40F60610FFF74EFC40F203302B
:10268000FFF744FC41F21700FFF746FC4FF441709E
:10269000FFF73CFC4FF40C50FFF73EFC40F20530D6
:1026A000FFF734FC4FF4B850FFF736FC40F2063029
:1026B000FFF72CFC46F20930FFF72EFC40F2073002
:1026C000FFF724FC40F60940FFF726FC4FF4427068
:1026D000FFF71CFC41F20C00FFF71EFC40F2093032
:1026E000FFF714FC42F23220FFF716FC1020FFF730
:1026F0000DFC1420FFF710FC1120FFF707FC40F23F
:102700000110FFF709FC4FF48070FFF7FFFB4FF457
:102710000C70FFF701FC322001F064FA40F2011066
:10272000FFF7F4FB40F24720FFF7F6FB4FF4FA7493
:1027300001E0601E84B2002CFBDC322001F052FA72
:1027400040F20310FFF7E2FB4FF42060FFF7E4FBD9
:102750004FF4FA7401E0601E84B2002CFBDC0A2006
:1027600001F040FA4FF42070FFF7D0FB4FF2FF006A
:10277000FFF7D2FB322001F035FA4FF4FA7401E092
:10278000601E84B2002CFBDC4FF48170FFF7BEFBAF
:102790004BF2B010FFF7C0FB4FF4FA7401E0601E7B
:1027A00084B2002CFBDC322001F01CFA4FF40470E0
:1027B000FFF7ACFB0020FFF7AFFB40F21120FFF763
:1027C000A5FBEF20FFF7A8FB40F21220FFF79EFBCE
:1027D0000020FFF7A1FB40F21320FFF797FB40F228
:1027E0008F10FFF799FB4FF40070FFF78FFB00206D
:1027F000FFF792FB40F20120FFF788FB0020FFF774
:102800008BFB40F20140FFF781FB0020FFF784FBC8
:102810000720FFF77BFB4FF48070FFF77DFB4FF441
:10282000FA7401E0601E84B2002CFBDC322001F05F
:10283000D9F940F20220FFF769FB0020FFF746F9C3
:102840004FF6FF70FFF71EF910BD000018000020C2
:10285000204C43442049443A25780D0A00000000EA
:102860002DE9F04705460E4617469846A7F5967996
:10287000DFF828A000242868446809E0334652465F
:1028800049462068C047D4F800A0646809F10109EE
:10289000002CF3D10120BDE8F0870000000080BFCC
:1028A00000B585B0012144F20400FFF7B5FC4FF4F8
:1028B0000070ADF8100018208DF8130003208DF87B
:1028C000120004A91348FEF7AFFE4FF48060ADF884
:1028D000100004208DF8130004A90E48FEF7A4FE92
:1028E0004FF4E13000900020ADF80400ADF8060090
:1028F000ADF80800ADF80C000C20ADF80A006946F0
:10290000054800F025F80121034800F007F805B05C
:1029100000BD0000000801400038014021B182895B
:1029200042F40052828104E082894DF6FF731A401E
:102930008281704702460020B1F5007F00D100BFC0
:1029400013880B400BB1012000E00020704700000D
:102950002DE9F04786B005460E460024A24600BF8A
:10296000A1460027B08900B100BF2F462C8A4CF643
:10297000FF700440F08804432C82AC894EF6F310BB
:102980000440B08831890843718908430443AC810D
:10299000AC8A4FF6FF400440B0890443AC8201A8E2
:1029A000FFF74AFC1F48874202D1DDF810A001E082
:1029B000DDF80CA0A88900F4004040B10AEBCA0081
:1029C00000EB0A1031684900B0FBF1F807E00AEBB0
:1029D000CA0000EB0A1031688900B0FBF1F86420EE
:1029E000B8FBF0F004012009642101FB1089A889DB
:1029F00000F4004040B1322000EBC900B0FBF1F020
:102A000000F00700044308E0322000EB09106421C5
:102A1000B0FBF1F000F00F0004432C8106B0BDE8DC
:102A2000F087000000380140C1F30802828070473F
:102A300000BFFEE701B584B0FCA01021CDE9001075
:102A4000FE4840880390FD480088029002460A2113
:102A50000846039BFFF726FAF9A01021CDE90010E4
:102A6000F64840880390F5480088029002463221DB
:102A700040F25910039BFFF715FAF3A01021CDE99E
:102A80000010EE4840880390EC480088029002460F
:102A90005A2140F25910039BFFF704FAECA01021D1
:102AA000CDE90010E54840880390E4480088029092
:102AB0000246822140F25910039BFFF7F3F9E6A08A
:102AC0001021CDE90010DD4840880390DB480088E4
:102AD00002900246AA214800039BFFF7E3F94FF654
:102AE000E07034234FF4A072194600901420FFF7D1
:102AF00083F84FF6E0706B234FF4A07219460090F4
:102B00001420FFF779F84FF6E070A2234FF4A0727B
:102B1000194600901420FFF76FF84FF6E070D923A4
:102B20004FF4A072194600901420FFF765F84FF695
:102B3000E070EB234622232100901046FFF75CF85B
:102B40004FF6E070EB237822232100901046FFF728
:102B500053F84FF6E070EB23AA2223210090104691
:102B6000FFF74AF84FF6E070EB23DC2223210090B8
:102B70001046FFF741F84FF6E070EB234FF48772F1
:102B8000232100901046FFF737F80020EB23142292
:102B9000232100901046FEF7D9FF0020EB234FF4CD
:102BA000A072194600901420FEF7D0FF0020EB23FE
:102BB0004FF4A072232100901046FEF7C7FF0020BB
:102BC00023234FF4A072194600901420FEF7BEFF95
:102BD0000498062876D2DFE800F00376E9FDFCFBD6
:102BE0009FA01021CDE9001094484088039093489D
:102BF000008802900246DA211820039BFFF752F961
:102C000098A01021CDE900108C48408803908B4893
:102C1000008802900246DA214A20039BFFF742F91E
:102C200091A01021CDE9001084484088039083488A
:102C3000008802900246DA217C20039BFFF732F9DC
:102C40008BA01021CDE900107C48408803907B4880
:102C5000008802900246DA21AE20039BFFF722F99A
:102C600085A01021CDE90010744840880390734876
:102C7000008802900246DA21E020039BFFF712F958
:102C80007FA01021CDE900106C48408803906B486C
:102C9000008802900246DA214FF48970039BFFF707
:102CA00001F979A01021CDE9001064484088039013
:102CB0006248008802900246DA214FF4A270039B1A
:102CC000FFF7F0F885E266A01021CDE900105B481F
:102CD000408803905948008802900246DA21182063
:102CE000039BFFF7DFF860A01021CDE900105348E7
:102CF000408803905148008802900246DA214A2019
:102D0000039BFFF7CFF85CA01021CDE900104B48E2
:102D1000408803904948008802900246DA217C20CE
:102D2000039BFFF7BFF858A01021CDE900104348DE
:102D3000408803904148008802900246DA21AE2084
:102D4000039BFFF7AFF852A01021CDE900103B48DC
:102D5000408803903948008802900246DA21E0203A
:102D6000039BFFF79FF84CA01021CDE900103348DA
:102D7000408803903148008802900246DA214FF4DF
:102D80008970039BFFF78EF845A01021CDE9001054
:102D90002A48408803902948008802900246DA2198
:102DA0004FF4A270039BFFF77DF812E22CA01021D4
:102DB000CDE9001021484088039020480088029007
:102DC0000246DA211820039BFFF76CF82AA002E0E4
:102DD0008BE116E1A0E01021CDE9001017484088F2
:102DE00003901648008802900246DA214A20039B8D
:102DF000FFF758F826A01021CDE900100F484088B1
:102E000003900E48008802900246DA217C20039B42
:102E1000FFF748F822A01021CDE9001007484088AC
:102E2000039006480088029002463DE05147204F3B
:102E30007363696C6C6F73636F70650018000020BA
:102E4000505F566F6C3A00004C505F566F6C3A0002
:102E500050505F566F6C3A00467265713A00000040
:102E6000306D7300356D730031306D7300000000FC
:102E700031356D730000000032306D7300000000CA
:102E800032356D730000000033306D7300000000B8
:102E900034306D730000000035306D7300000000A9
:102EA00036306D7300000000DA21AE20039BFEF780
:102EB000F9FFEBA01021CDE90010EB48408803900A
:102EC000E948008802900246DA21E020039BFEF7E1
:102ED000E9FFE6A01021CDE90010E3484088039007
:102EE000E148008802900246DA214FF48970039B82
:102EF000FEF7D8FFDFA01021CDE90010DA484088A6
:102F00000390D948008802900246DA214FF4A2705B
:102F1000039BFEF7C7FF5CE1AFF2BC001021CDE9D7
:102F20000010D14840880390CF48008802900246A4
:102F3000DA211820039BFEF7B5FFAFF2AC00102199
:102F4000CDE90010C84840880390C7480088029027
:102F50000246DA214A20039BFEF7A4FFC0A01021FD
:102F6000CDE90010C04840880390BF480088029017
:102F70000246DA217C20039BFEF794FFBDA01021BE
:102F8000CDE90010B84840880390B7480088029007
:102F90000246DA21AE20039BFEF784FFB7A0102182
:102FA000CDE90010B04840880390AF4800880290F7
:102FB0000246DA21E020039BFEF774FFB1A0102146
:102FC000CDE90010A84840880390A74800880290E7
:102FD0000246DA214FF48970039BFEF763FFABA032
:102FE0001021CDE90010A048408803909E48008839
:102FF00002900246DA214FF4A270039BFEF752FFC3
:10300000E7E0AFF2A4101021CDE900109648408807
:1030100003909548008802900246DA211820039B0D
:10302000FEF740FF8EA01021CDE900108E484088A9
:1030300003908D48008802900246DA214A20039BC3
:10304000FEF730FF8DA01021CDE9001086484088A2
:1030500003908548008802900246DA217C20039B79
:10306000FEF720FF89A01021CDE900107E4840889E
:1030700003907D48008802900246DA21AE20039B2F
:10308000FEF710FF83A01021CDE90010764840889C
:1030900003907548008802900246DA21E020039BE5
:1030A000FEF700FF7DA01021CDE900106E4840889A
:1030B00003906D48008802900246DA214FF489702F
:1030C000039BFEF7EFFE77A01021CDE900106648C4
:1030D000408803906448008802900246DA214FF449
:1030E000A270039BFEF7DEFE73E0AFF28C2010218E
:1030F000CDE900105C48408803905B48008802904E
:103100000246DA211820039BFEF7CCFE5BA01021BB
:10311000CDE900105448408803905348008802903D
:103120000246DA214A20039BFEF7BCFE59A010217B
:10313000CDE900104C48408803904B48008802902D
:103140000246DA217C20039BFEF7ACFE55A010213D
:10315000CDE900104448408803904348008802901D
:103160000246DA21AE20039BFEF79CFE4FA0102101
:10317000CDE900103C48408803903B48008802900D
:103180000246DA21E020039BFEF78CFE49A01021C5
:10319000CDE90010344840880390334800880290FD
:1031A0000246DA214FF48970039BFEF77BFE43A0B1
:1031B0001021CDE900102C48408803902A4800884F
:1031C00002900246DA214FF4A270039BFEF76AFEDA
:1031D00000BF00BF3BA01021CDE90010224840886D
:1031E00003902148008802900246C8214FF496704F
:1031F000039BFEF757FE34A01021CDE900101A48BA
:10320000408803901848008802900246912140F2BD
:103210001D10039BFEF746FE2DA01021CDE90010E6
:1032200011484088039010480088029002465A21B5
:1032300040F21D10039BFEF735FE27A01021CDE9BB
:103240000010094840880390074800880290024611
:10325000252140F21D10039BFEF724FE05B000BDA2
:1032600038306D7300000000180000203130306DE0
:10327000730000003132306D730000003136306D64
:10328000730000003230306D730000003234306D56
:10329000730000003332306D730000003430306D45
:1032A000730000003438306D730000003634306D28
:1032B000730000003830306D730000003936306D17
:1032C0007300000030560000312E3156000000001F
:1032D000322E325600000000332E3356000000001C
:1032E0000FB4054B10B503A9044A029800F0DEF8AC
:1032F00010BC5DF814FB00007D3C00086800002055
:103300000FB4084B10B504A902AA039800F0CEF838
:10331000044602A9002000F060FC204610BC5DF8C5
:1033200014FB0000DB3B000802E008C8121F08C1C4
:10333000002AFAD170477047002001E001C1121F36
:10334000002AFBD1704700002DE9FF5FDDE9022074
:10335000010DDDF838B0024318D044F61050A1F248
:10336000FF3141430D140F98012820D0A5EB0B002D
:10337000401C5FEA000A4FF00004474EDFF81C9142
:10338000A046504616D5CAF1000728E00F98012440
:1033900043A2012808D0002100980F9BC0E900211A
:1033A000C0E90243BDE8FF9F6FEA0B01F4E7CBF1F0
:1033B0000000DEE7074612E0F80707D02246334652
:1033C00040464946FDF73FF8804689462246334647
:1033D00010461946FDF737F804460E467F10002FB9
:1033E000EAD1DDE90201BAF1000F42464B4602DAAA
:1033F000FDF729F801E0FDF798F804460E46002293
:10340000284BFDF77BFA03D84FF0FF30014607E069
:103410000022254B20463146FCF76EFFFDF756FA99
:10342000102409E0002C0ADB0A220023FDF768F9CA
:10343000019B30321A55641E50EA0102F2D1641C1D
:10344000019AC4F1110314440F9A012A03D00122F6
:1034500008430DD10AE0084304D000204FF0110BBF
:103460000F9080E7A3EB0B056D1E0DE05B4504DDBF
:103470004FF0000205F1010504E003DA4FF000020D
:10348000A5F10105002AECD000980F99C0E902319E
:10349000C0E9004586E70000000024400000F03F3E
:1034A000300000000000F0430000E03F2DE9FF4F36
:1034B00095B09B468946064600250FE2252877D120
:1034C00000242746F84A0121059400E0044316F839
:1034D000013F203B01FA03F01042F7D130782A284F
:1034E00011D06FF02F033078A0F13002092A16D8DE
:1034F000059A44F0020402EB820203EB42021044FC
:10350000761C0590EFE759F8042B0592002A03DAA0
:10351000504244F40054059044F00204761C307884
:103520002E2816D116F8010F44F004042A280DD0D5
:103530006FF02F023078A0F13003092B09D807EB88
:10354000870302EB4303C718761CF3E759F8047BA3
:10355000761C30786C280FD006DC4C2817D06828F1
:103560000DD06A2814D104E0742810D07A280FD125
:103570000DE044F400140AE044F4801401E044F443
:1035800040147278824202D104F58014761C761CB5
:10359000307866280BD013DC582877D009DC002857
:1035A00075D04528F6D04628F4D047281AD19DE199
:1035B00018E0632835D0642879D0652812D195E1C8
:1035C000702873D008DC6728F1D069286FD06E2886
:1035D0000DD06F2806D1B5E073282CD0752875D092
:1035E000782874D05A46179990476D1C75E1C4F33A
:1035F0000250022809D003280DD0D9F80010042861
:103600000DD00D6009F1040967E1D9F80010EA173F
:10361000C1E90052F6E7D9F800100D80F2E70D700D
:10362000F0E719F8041B8DF8001000208DF8010058
:10363000EA46012003E059F804AB4FF0FF30610780
:103640004FF0000102D40DE008F101018846B942B3
:103650000FDA8045F8DB1AF808100029F4D108E0E9
:1036600008F1010188468142FADB1AF808100029A6
:10367000F6D105985B46A0EB080721463846179A15
:1036800000F094FA284400EB080507E04DE029E13A
:103690000DE01AF8010B5A4617999047B8F1010846
:1036A000F7D25B4621463846179A13E142E00A22D8
:1036B0000092C4F302524FF0000A022A08D059F8CF
:1036C00004CB032A4FEAEC710AD00DE029E02AE08E
:1036D00009F1070121F00702F2E802C1914609E071
:1036E0000FFA8CFC4FEAEC71042A03D14FFA8CFCE0
:1036F0004FEAEC71002907DA0A460021DCF1000CE0
:1037000061EB02012D2202E0220504D52B228DF867
:103710000420012203E0E20701D02022F7E79046CF
:1037200059E00A2102E010220DE010214FF0000ABA
:1037300000910BE010224FF0000A44F00404082727
:10374000009203E008224FF0000A0092C4F30252F4
:10375000022A05D059F804CB0021032A08D009E039
:1037600009F1070121F00702F2E802C1914605E0E4
:103770001FFA8CFC042A01D10CF0FF0C4FF000085A
:10378000220728D5702806D0009B83F0100353EA47
:103790000A0305D00EE040228DF80420012208E043
:1037A0005CEA010206D030228DF804208DF8050075
:1037B00002229046009B83F0080353EA0A030AD1D1
:1037C0005CEA010201D1620705D530228DF80420A0
:1037D0004FF001087F1E582804D034A003900EA893
:1037E00002900DE036A0F9E753466046009AFCF7D8
:1037F00087FF84460398825C0298401E0290027004
:103800005CEA0100F0D1029806A9081A00F1200A2A
:10381000600702D524F4803400E00127574502DD1B
:10382000A7EB0A0000E0002000EB0A0100900598D9
:103830004144401A0590E00306D45B462146179A9E
:10384000059800F0B3F90544002706E001A85A46A0
:10385000C05D179990476D1C7F1C4745F6DBE00360
:103860000CD55B462146179A059800F09FF9054450
:1038700004E030205A46179990476D1C0099481E65
:1038800000900029F5DC08E0029802995A46007879
:10389000491C0291179990476D1CBAF10001AAF1D9
:1038A000010AF1DC65E10000092801003031323302
:1038B000343536373839616263646566000000006C
:1038C0003031323334353637383941424344454656
:1038D0000000000000F058F90544761C30780028FC
:1038E0007FF4ECAD19B02846BDE8F08F620700D434
:1038F000062709F1070222F0070CFCE80223E14643
:1039000003F000485FEA080C02D00FF2702C0DE0C3
:103910005FEA045C02D50FF2682C07E05FEAC47C22
:1039200002D00FF2602C01E0AFF2700C4FF0FF38C4
:1039300023F00043CDF850C065280CD006DC4528A4
:1039400009D046281DD047283DD13DE0662818D033
:1039500067287ED138E00021112F01DB112000E023
:10396000781CCDE9000106A90EA8FFF7EDFCDDE902
:103970000F010E9A03910021009207F1010A0491B0
:103980004DE04FF000400097CDE9011006A90EA8C8
:10399000FFF7DAFCDDE90F0203920E9B119900227A
:1039A000DDF80CA00093049211B9791C00EB010A18
:1039B000B7EB0A0004D4C0F1FF3007F1010A04900C
:1039C000AAEB0700019044E0012F00DA0127002153
:1039D000112F01DD112000E03846CDE9000106A9D4
:1039E0000EA8FFF7B1FCDDE90F010E9A039100214B
:1039F00004910092BA4621070CD40399514500DA8C
:103A00008A46BAF1010F05DD009AAAF10101515C65
:103A1000302908D0B84202DA10F1040F06DA012189
:103A2000CDE9011015E0AAF10101E9E7002805DC64
:103A3000049901440491AAEB000102E0411C5145A4
:103A400000DD8A460499401A401C01904FF0004066
:103A50000290200704D40198504501DBCDF8048082
:103A600000208DF84F0002980DF14F07B0F1004F84
:103A700025D02B200E9002984FF0020800280CDA77
:103A8000404202902D200E9007E00A210298FCF798
:103A900021FE3031029007F8011DB8F10001A8F1B4
:103AA0000108F2DC02980028EFD1791E0E98087008
:103AB000307800F0200040F0450007F8020D12A811
:103AC000C01B00F107081498007800B1012000EB3A
:103AD0000A01019801EBE07105984144401A401E2B
:103AE0000590E00306D45B462146179A059800F03E
:103AF0005DF805441498007818B15A461799904714
:103B00006D1CE00324D55B462146179A059800F00A
:103B10004DF805441CE00498002807DBDDE90301AB
:103B2000884203DD0098405C179901E01799302026
:103B30005A469047049805F10105401C04900198ED
:103B4000401E019004D12E205A46179990476D1CB3
:103B5000BAF10001AAF1010ADDDC05E017F8010B5A
:103B60005A46179990476D1CB8F10001A8F1010859
:103B7000F4DC5B462146179A0598ABE62D00000061
:103B80002B000000200000002DE9F0410446002534
:103B90001E461746880404D405E039462020B04765
:103BA0006D1C641EF9D52846BDE8F0812DE9F04171
:103BB000044600251E469046C80301D5302700E084
:103BC0002027880404D505E041463846B0476D1CDF
:103BD000641EF9D52846BDE8F0810A68531C0B60C5
:103BE000107070470146114A12884A434FF0E02393
:103BF0005A6100229A611A46126942F001021A6162
:103C000000BF4FF0E022106900F001021AB100F489
:103C10008032002AF5D04FF0E022126922F0010232
:103C20004FF0E0231A6100229A61704722000020C1
:103C30000146114A12784A434FF0E0235A610022AC
:103C40009A611A46126942F001021A6100BF4FF0F0
:103C5000E022106900F001021AB100F48032002A5B
:103C6000F5D04FF0E022126922F001024FF0E0237C
:103C70001A6100229A6170472000002070B5044646
:103C80000D46E1B20548FEF7CFFE00BF40210348D4
:103C9000FEF750FE0028F9D0204670BD00380140E4
:103CA00010B5002821D0114B0022001F196803E035
:103CB000814203D80A4649680029F9D152B11368F4
:103CC000841A9C4204D1006818441060104602E037
:103CD000506000E0186039B102680B1A934203D1BA
:103CE0000B681A4402604968416010BD6C000020F6
:103CF0000C2000F033F81649086008460068FDF70C
:103D00008DFE4820FEF78EFB4FF4A060FEF75CFAB4
:103D1000FEF7C6FDFCF744FEFEF748FCFEF708F987
:103D2000FDF78CFEFEF7AAF900200A490880FEF78D
:103D300081FE0BE00848006808B9012000E000207F
:103D4000054908604FF47A70FFF74CFFF2E7000076
:103D5000280000201400002090012242F0B50B3012
:103D6000154D20F007010024144A0FE003688B4230
:103D70000BD38B4205D95E1A43184768C3E9006725
:103D800000E04368136002C004E0021D10680028D0
:103D9000ECD12046002802D1286808B10020F0BDEF
:103DA000064A07481060074A121A22F00702C0E9C3
:103DB000002401202860D7E7700000206C0000205C
:103DC0001C1000201850002000000000000000001F
:103DD00000000000000000003F4000000000000064
:103DE00000003000400030004000000009000BC01F
:103DF0003D000BC03D00090018C024407FE0224078
:103E000031800000180024C01B000D80324001806A
:103E100003801C4027401C800740004010006000C9
:103E200000000000000000000000000000001F80F3
:103E3000204040200000402020401F800000000063
:103E4000090006001F8006000900000004000400AD
:103E50003F8004000400000000100060000000002B
:103E6000000000000400040004000400040000003E
:103E7000000000400000000000000000002001C021
:103E800006003800400000001F80204020402040F5
:103E90001F800000000010403FC0004000000000F4
:103EA00018C02140224024401840000010802040CB
:103EB000244024401B80000002000D0011003FC080
:103EC000014000003C802440244024402380000026
:103ED0001F80244024403440038000003000200034
:103EE00027C03800200000001B80244024402440CC
:103EF0001B8000001C0022C0224022401F800000C6
:103F00000000000008400000000000000000000069
:103F10000460000000000000000004000A0011001E
:103F20002080404009000900090009000900000044
:103F300000004040208011000A000400180020000A
:103F400023402400180000001F8020402740294003
:103F50001F400000004007C039000F0001C00040B2
:103F600020403FC0244024401B8000001F80204090
:103F7000204020403080000020403FC020402040B2
:103F80001F80000020403FC024402E4030C0000071
:103F900020403FC024402E00300000000F00108061
:103FA000204022403380020020403FC00400040033
:103FB0003FC02040204020403FC020402040000023
:103FC0000060202020203FC02000200020403FC073
:103FD00024400B0030C0204020403FC02040004023
:103FE000004000C03FC03C0003C03C003FC0000098
:103FF00020403FC00C4023003FC020001F802040D5
:10400000204020401F80000020403FC0244024006A
:10401000180000001F802140214020E01FA0000068
:1040200020403FC02440260019C0004018C0244052
:104030002440224031800000300020403FC020401A
:104040003000000020003F80004000403F80200002
:1040500020003E0001C0070038002000380007C0E3
:104060003C0007C038000000204039C0060039C0BD
:10407000204000002000384007C0384020000000E9
:10408000304021C02640384020C000000000000021
:104090007FE0402040200000000070000C00038002
:1040A000004000000000402040207FE000000000B1
:1040B0000000200040002000000000000010001060
:1040C0000010001000100010000000004000000070
:1040D00000000000000002800540054003C00040D1
:1040E00020003FC004400440038000000000038023
:1040F00004400440064000000000038004402440C7
:104100003FC0004000000380054005400340000020
:10411000000004401FC0244024402000000002E0B2
:10412000055005500650042020403FC004400400C4
:1041300003C000400000044027C000400000000011
:1041400000100010041027E00000000020403FC0D5
:104150000140070004C00440204020403FC0004010
:104160000040000007C0040007C0040003C00000B6
:10417000044007C00440040003C000400000038066
:104180000440044003800000041007F00450044081
:1041900003800000000003800440045007F000107A
:1041A000044007C002400400040000000000064074
:1041B0000540054004C00000000004001F800440CA
:1041C00000400000040007800040044007C0004099
:1041D0000400070004C0018006000400060001C0BE
:1041E000070001C006000000044006C0010006C030
:1041F000044000000410071004E0018006000400E1
:104200000000044005C0064004400000000000001B
:1042100004007BE040200000000000000000FFF0F0
:1042200000000000000040207BE0040000000000CF
:1042300040008000400020002000400000000000FE
:10424000000000000000000000000000000000006E
:1042500000001FCC000C000000000000000008005F
:10426000300060000800300060000000022003FC05
:104270001E20022003FC1E200220000000000E1859
:1042800011043FFF10840C78000000000F00108420
:104290000F3800C0077818840078000000780F8479
:1042A00010C411240E9800E400840008080068007F
:1042B000700000000000000000000000000000008E
:1042C000000007E01818200440020000000040022F
:1042D0002004181807E0000000000000024002401F
:1042E00001800FF001800240024000000080008049
:1042F00000800FF800800080008000000001000DA9
:10430000000E00000000000000000000000000801F
:104310000080008000800080008000800000000C91
:10432000000C00000000000000000000000000067B
:10433000001800600180060018002000000007F04F
:10434000080810041004080807F000000000080422
:1043500008041FFC000400040000000000000E0C14
:1043600010141024104411840E0C000000000C18CE
:1043700010041104110412880C700000000000E009
:104380000320042408241FFC0024000000001F98C0
:10439000108411041104108810700000000007F050
:1043A00008881104110418880070000000001C0027
:1043B000100010FC13001C001000000000000E385C
:1043C00011441084108411440E38000000000700CE
:1043D000088C10441044088807F00000000000001A
:1043E0000000030C030C00000000000000000000AF
:1043F0000001010600000000000000000000008035
:1044000001400220041008081004000002200220CD
:1044100002200220022002200220000000001004DE
:1044200008080410022001400080000000000E0077
:104430001200100C106C10800F00000003E00C182C
:1044400013E4142417C4082807D000000004003C1B
:1044500003C41C40074000E4001C000410041FFCBF
:104460001104110411040E880070000003E00C1800
:1044700010041004100410081C10000010041FFC8D
:10448000100410041004080807F0000010041FFCBA
:104490001104110417C410040818000010041FFCB4
:1044A0001104110017C010000800000003E00C18F0
:1044B0001004100410441C780040000010041FFC7D
:1044C00010840080008010841FFC10040000100481
:1044D00010041FFC10041004000000000003000181
:1044E000100110011FFE10001000000010041FFC3E
:1044F000110403801464181C1004000010041FFC35
:104500001004000400040004000C000010041FFC50
:104510001F0000FC1F001FFC1004000010041FFC03
:104520000C04030000E010181FFC100007F008083E
:10453000100410041004080807F0000010041FFC09
:1045400010841080108010800F00000007F0081801
:1045500010241024101C080A07F2000010041FFC8D
:104560001104110011C011300E0C000400000E1CCB
:1045700011041084108410441C380000180010002E
:1045800010041FFC100410001800000010001FF899
:1045900010040004000410041FF8100010001E0096
:1045A00011E0001C007013801C0010001FC0103CA4
:1045B00000E01F0000E0103C1FC000001004180CB9
:1045C000163401C001C01634180C100410001C0071
:1045D000130400FC13041C00100000000804101C4D
:1045E0001064108413041C04101800000000000064
:1045F00000007FFE40024002400200000000300048
:104600000C0003800060001C00030000000040025A
:10461000400240027FFE0000000000000000000099
:104620002000400040004000200000000001000188
:104630000001000100010001000100010000400034
:104640004000200000000000000000000000009872
:10465000012401440144014400FC000410001FFC3B
:104660000088010401040088007000000000007050
:1046700000880104010401040088000000000070AB
:1046800000880104010411081FFC0004000000F868
:10469000014401440144014400C800000000010439
:1046A00001040FFC1104110411001800000000D6D1
:1046B00001290129012901C90106000010041FFC7C
:1046C000008401000100010400FC0004000001045A
:1046D000190419FC0004000400000000000000039D
:1046E00000010101190119FE0000000010041FFC67
:1046F0000024004001B4010C01040000000010047B
:1047000010041FFC0004000400000000010401FC70
:104710000104010001FC0104010000FC010401FC92
:10472000008401000100010400FC0004000000F806
:10473000010401040104010400F80000010101FF6B
:104740000085010401040088007000000000007072
:10475000008801040104010501FF000101040104B6
:1047600001FC00840104010001800000000000CC75
:10477000012401240124012401980000000001000B
:10478000010007F80104010400000000010001F825
:10479000000400040004010801FC00040100018081
:1047A0000170000C001001600180010001F0010C9B
:1047B000003001C00030010C01F0010000000104D4
:1047C000018C00740170018C010400000101018161
:1047D0000171000E001801600180010000000184D9
:1047E000010C013401440184010C000000000000B0
:1047F0000000000001003EFC4002400200000000FA
:1048000000000000FFFF0000000000000000400268
:1048100040023EFC010000000000000000006000BB
:1048200080008000400040002000200000000000C8
:104830000000000000000000000000000000000078
:104840000000000000000000000000000000000068
:104850000000000000000000000000000000000F49
:1048600080380FFE380F8038000000000000000084
:104870000000000000000000000001000006000031
:104880000C00003800003100000600000C00003869
:1048900000003000000000000000000061800067A0
:1048A000F807F9800061800061800061800061800C
:1048B0000067F807F9800061800000000000000038
:1048C000000001C0E003E0F00630080418081FFFF4
:1048D000FE040E080787F00381E0000000000000DE
:1048E00001F000060C00040408060C7001F9C00079
:1048F0000E00003BE000EC18070808040C18000349
:10490000E00000000001E00007F003F818041C08B4
:1049100004170807E1D003C0E00023B0003C080002
:10492000200800001000000000000001000031001D
:10493000003200001C000000000000000000000029
:104940000000000000000000000000000000000067
:104950000000000000000000000000007F0001FFD8
:10496000C00780F00C0018100004200002000000B6
:104970000000002000021000040C00180780F00165
:10498000FFC0007F000000000000000000000000E9
:104990000000000000000000420000660000660009
:1049A000003C0000180003FFC0001800003C00009D
:1049B00066000066000042000000000008000008D9
:1049C0000000080000080000080001FFC000080007
:1049D00000080000080000080000080000000000B7
:1049E000000100003100003200001C000000000047
:1049F00000000000000000000000000000000000B7
:104A00000000000008000008000008000008000086
:104A10000800000800000800000800000800000866
:104A20000000000000000000000000003800003816
:104A3000000038000000000000000000000000003E
:104A40000000000000000000000000000006000060
:104A50001C000070000180000E0000380000C00043
:104A60000700001C000030000000000000000000F3
:104A70007F8001FFE0038070060018040008040036
:104A80000806001803807001FFE0007F800000002E
:104A900000000000000001000801000801000803F8
:104AA000FFF807FFF80000080000080000080000F9
:104AB0000000000000000001C03802C05804009847
:104AC000040118040218040418061C1803F818013D
:104AD000E0F800000000000000000001C0E003C09A
:104AE000F004000804080804080806180803F4186D
:104AF00001E7F00001E000000000000000000000FD
:104B00000300000D00001100006100008108030196
:104B10000807FFF80FFFF800010800010800000077
:104B20000000000000E007FCD00608080610080698
:104B30001008061008061838060FF00607C0000017
:104B400000000000000000003F8001FFE00384300F
:104B500002081804100804100804100807181003AD
:104B60000FF00007C000000000000000000003C0BC
:104B7000000700000600000600F80607F806180007
:104B800006E0000700000600000000000000000131
:104B9000E1E003F7F0063410041808041808040CC8
:104BA00008040C0806161803F3F001C1E000000029
:104BB00000000000F80003FC30030638040208047B
:104BC00002080402080404100308F001FFC0007F7B
:104BD00000000000000000000000000000000000D5
:104BE00000000000703800703800703800000000CD
:104BF00000000000000000000000000000000000B5
:104C00000000000000000000301A00301C0000000E
:104C10000000000000000000000000000000000094
:104C20000000000800001400002200004100008085
:104C3000800100400200200400100800080000006D
:104C400000000000210000210000210000210000E0
:104C5000210000210000210000210000210000218E
:104C60000000000000000000000008000804001020
:104C7000020020010040008080004100002200006E
:104C8000140000080000000000000003C00004C081
:104C900000040000080038080F3808083808100021
:104CA0000C300007E00003C000000000000000001E
:104CB0003F8000FFE0038070020F1006708804C080
:104CC00088048308047F8802C09003012000FE400E
:104CD0000000080000180001F8003E0801C20007AB
:104CE000020007E20000FE00001FC80001F80000FB
:104CF0003800000804000807FFF807FFF804080858
:104D000004080804080804080806180803F4180131
:104D1000E7F00001E0000000000000003F8001FF1C
:104D2000E003807002001804000804000804000872
:104D30000400100600200780C000000004000807DF
:104D4000FFF807FFF8040008040008040008040046
:104D50001802001003807001FFE0007F8000000057
:104D600004000807FFF807FFF8040808040808040F
:104D70000808040808043E0804000806001801009A
:104D80006000000004000807FFF807FFF8040808A7
:104D9000040800040800040800043E0006000006A1
:104DA0000000018000000000000000003F8001FFC3
:104DB000E0038070060018040008040208040208DA
:104DC0000203F00783F0000200000200040008075D
:104DD000FFF807FFF80408080008000008000008B2
:104DE0000000080004080807FFF807FFF80400089F
:104DF0000000000000000400080400080400080788
:104E0000FFF807FFF8040008040008040008000089
:104E10000000000000000000000600000700000184
:104E200004000104000104000307FFFE07FFFC0467
:104E3000000004000004000004000807FFF807FF5A
:104E4000F8040C08001800003E0004C7800503C8E1
:104E50000600F804003804001800000804000807E1
:104E6000FFF807FFF8040008000008000008000031
:104E700008000008000008000018000060000000A2
:104E800004000807FFF807800807FC00007FC00047
:104E900003F80007C000780007800807FFF807FF45
:104EA000F804000804000807FFF807000803C00022
:104EB00000E000003800001E000007000001C004F0
:104EC00000F007FFF8040000000000007F8001FFF1
:104ED000E0038070060018040008040008060018AB
:104EE00003003001FFE0007F80000000040008079D
:104EF000FFF807FFF8040408040400040400040495
:104F000000040400060C0003F80001F0000000009B
:104F1000000000007F8001FFE0038070060088042D
:104F200000880400C806003C03003E01FFE6007F45
:104F30008400000004000807FFF807FFF8040808D1
:104F4000040800040C00040F00040BC00610F0035A
:104F5000F03801E00800000800000001E0F803F06C
:104F600030063010041808041808040C08040C0853
:104F70000206180207F00781E00000000180000629
:104F8000000004000004000004000807FFF807FF09
:104F9000F80400080400000400000600000180007E
:104FA00004000007FFE007FFF004001800000800FD
:104FB000000800000800000800000804001007FFB7
:104FC000E004000004000006000007E00007FE0007
:104FD000041FE00001F80000380001E0043E000773
:104FE000C00006000004000004000007E00007FF06
:104FF000C0041FF80007C007F80007FF80043FF84F
:105000000007C004F80007000004000000000004CE
:10501000000806001807C07805F1C8003E00001F10
:10502000800463E80780F806001804000800000008
:1050300004000006000007800007E008047C080068
:105040001FF80007F800180804E008070000060031
:10505000000400000000000100080600380400F809
:105060000403E8040F08047C0805F00807C00807DB
:1050700000180400600000000000000000000000B4
:10508000000000000000003FFFFE200002200002A0
:1050900020000220000220000200000000000000AA
:1050A000000008000007000000C0000038000006F3
:1050B000000001C000003000000E000001000000F0
:1050C000000000000000200002200002200002205A
:1050D00000022000023FFFFE000000000000000070
:1050E00000000000000000000000000000080000B8
:1050F0001000003000002000003000001000000808
:10510000000000000000000000000100000100009D
:105110000100000100000100000100000100000189
:10512000000001000001000001000001000000007B
:10513000000000000020000020000010000010000F
:10514000000000000000000000000000000000005F
:105150000000000000F00019F8001B1800220800F1
:105160002608002408002410003FF8001FF8000063
:105170000800001800000004000007FFF80FFFF00F
:10518000001818001008002008002008003018003F
:105190001FF0000FC00000000000000007C0001F4B
:1051A000F0001830002008002008002008003C080B
:1051B000001C100000600000000000000000000063
:1051C00007C0001FF0003818002008002008002049
:1051D0000804101007FFF80FFFF000001000000097
:1051E0000000000000000007C0001FF000123000A7
:1051F0002218002208002208003208001E10000EAB
:10520000200000000000000020000020080020080E
:1052100001FFF803FFF8062008042008042008070F
:10522000200003000000000000000000000E000E3F
:105230006E001FF30031B10020B10020B1003191A8
:10524000001F13002E1E00200E003000000000047E
:10525000000807FFF80FFFF80010080020000020EA
:1052600000002008003FF8001FF8000008000000C0
:1052700000000000000000200800200800200806B0
:105280003FF8063FF8000008000008000008000092
:105290000000000000000000000000000300000308
:1052A000002001002001002003063FFE063FFC0015
:1052B000000000000000000000000004000807FFDC
:1052C000F80FFFF8000188000300002FC00038F835
:1052D0000020380020080000080000000000000046
:1052E000000004000804000804000807FFF80FFF8E
:1052F000F80000080000080000080000000000009E
:10530000002008003FF8003FF800100800200000CF
:105310003FF8003FF8001008002000003FF8003F71
:10532000F8000008000000002008003FF8003FF8E7
:10533000001008001000002000002008003FF800C6
:105340001FF80000080000000000000007C0000F68
:10535000F000183000300800200800200800300855
:10536000001830000FF00007C0000000000000002F
:105370002001003FFF003FFF001011002009002026
:1053800008002008003038001FF0000FC0000000A7
:105390000000000007C0001FF000381800200800BF
:1053A0002008002009001011001FFF003FFF00002F
:1053B00001000000002008002008002008003FF83D
:1053C000003FF80008080010080020080020000036
:1053D0003000003000000000000000000000000C61
:1053E00078001E18003308002308002108002188D7
:1053F0000021980030F0003860000000000000003C
:10540000200000200000200000FFF003FFF8002033
:105410000800200800200800003000000000000004
:10542000000000002000003FF0007FF8000018009E
:105430000008000008002010003FF8007FF0000086
:1054400010000000000000002000003000003C00C0
:10545000003F800023F000007800007000238000EF
:105460003C00003000002000002000003C00003F15
:10547000E00023F80000E0002700003E00003FE0CD
:105480000021F80001E0003E0000200000000000C4
:105490002008002008003838003E680027800003FC
:1054A000C8002CF800383800201800200800000040
:1054B000000000002000003003003C01003F83009A
:1054C00023EC000070002380003C0000200000203E
:1054D0000000000000000000000000380800203834
:1054E0000020F80023E8002F88003E08003808005C
:1054F0002018000070000000000000000000000004
:10550000000000000000000008000014001FF7FC6D
:105510003000062000020000000000000000000033
:105520000000000000000000000000000000FFFF7D
:10553000FF0000000000000000000000000000006C
:105540000000000000002000023000061FF7FC00F1
:10555000140000080000000000000000000000002F
:105560000000000000000018000060000040000083
:1055700040000020000010000008000004000004AB
:1055800000000C0000100000C6D50000000000E084
:10559000380000783C00003C7800003C70C0001CE3
:1055A000E1E01FFFFFF0001CE3000E1CE7C0079CBA
:1055B000E78003DCEF0003DCEE0001DCFC60009C14
:1055C000F9F07FFFFFF80000000001C00E0001FFAE
:1055D000FF0001C00E0001C00E0001C00E0001FF5F
:1055E000FE0001C00E0001C00E0001C00E0001FF50
:1055F000FE0001C00E0001C00E0000000000D6D069
:105600000000000000070000000780000007000005
:105610000007000000070000000701801FFFFFE0F7
:105620001FFFFFE01E0701C01E0701C01E0701C0CB
:105630001E0701C01E0701C01E0701C01FFFFFC0DB
:105640001FFFFFC01E0701C01C07018000070000EC
:10565000000700000007000000070000000700002E
:10566000000700000007000000070000000700001E
:1056700000000000BFC60000000000000780003CE2
:1056800007C001FC07803FE0078039C1C78001C027
:10569000E78001C0F78001C0778001DE77807FFE60
:1056A000078001C0078003C3C78003E1E78003F8D8
:1056B000F78007FCE7F00FDE67F80FDC07F81FC084
:1056C000FF801DDFE78039CC078071C0078061C093
:1056D000078001C0078001C0078001E0078001E06A
:1056E000078001C0070000000000BCBC00000000F3
:1056F0000380300003C03C0003C03C0003C03800FE
:1057000003C0380003C0386003F838F07FFFFFF0B3
:1057100003C0380003C0380003C0380003DC39C0C0
:1057200003FFFFE007E383C03FC183C07FC1C380A5
:105730003BC1C78003C0EF0003C0EF0003C07E0081
:1057400003C07C0003C07C0003C0FE003BC3EF80AD
:105750003F8787F80FBF03F8077800E000000000DC
:10576000C4EA0000000000C0000001F0000001E0F9
:10577000000003C000C003C001E007FFFFF0070303
:10578000C0000E03C0001E03C0003C03C30073032F
:10579000C78063FFFFC00383C0000383C00003838F
:1057A000C0000383C0000383C0600383C0F07FFF99
:1057B000FFF80003C0000003C0000003C0000003A6
:1057C000C0000003C0000003C0000003C0000003CD
:1057D000C00000000000D4C2000000000000000073
:1057E00000E0070000FFFF8000F0078000F00700E6
:1057F00000F0070000F0070000F0070000FFFF00C6
:1058000000FFFF0000F0070000F0070000F00700B5
:1058100000F0070000E0070000FFFF0000E00700C5
:1058200000E0070000E0070001E0070001C00700FA
:1058300001C00700038007000780F7000F007F000A
:105840001E001F0038001C0000000000C8D500002A
:105850000000000000000300030003FFFF8003FFBF
:10586000FF80038007000380070003800700038098
:105870000700038007000380070003800700038000
:10588000070003FFFF000380070003800700038079
:1058900007000380070003800700038007000380E0
:1058A0000700038007000380070003FFFF00038059
:1058B00007000380070003800700030000000000CA
:1058C0000000D0C7000000000000000003800700B7
:1058D00003FFFF80038007000380070003800700A9
:1058E00003FFFF00038007000380070003FFFF00A2
:1058F00003FFFF00038707000387C00003C7810081
:1059000003C7838007FFFFC0070780000F078000E1
:105910001E0786001C078F003BFFFF80700780007A
:1059200000078000000780E0000781F07FFFFFF89C
:105930000000000000000000C6DA000000000600C1
:105940000000079E0000079E7FF0079E7FF0079FE4
:10595000F8F03FFFF8F01F9E78F0079E78F0079E62
:1059600078F007FE7FF0079E78F0079E78F0079E9C
:1059700070F007FE70F0079E70F0079E7FF0079FA3
:10598000FFF03FFFF0F0119070F003DCF0F003DE69
:10599000E0F0078FE0F00F0FE0F00E07C0F01C03FF
:1059A0008FF0380F03E0201C01C000000000000051
:1059B000D0590008000000207400000028330008BF
:1059C000445A000874000020A48F000038330008F7
:1059D0000000000001020304010203040607080995
:1059E000020406080000FFFF0000000000000000A5
:1059F00000000000000000000000000000000000A7
:105A00000000000000000000000000000000000096
:105A10000000000000000000000000000000000086
:105A2000000000000000000000000C420000000028
:105A30000000000000000000000000000000000066
:045A40000000000062
:0400000508000131BD
:00000001FF
